{
  "contractName": "MemoryProof",
  "abi": [
    {
      "inputs": [
        {
          "internalType": "uint256",
          "name": "",
          "type": "uint256"
        }
      ],
      "name": "records",
      "outputs": [
        {
          "internalType": "address",
          "name": "user",
          "type": "address"
        },
        {
          "internalType": "string",
          "name": "npcId",
          "type": "string"
        },
        {
          "internalType": "bytes32",
          "name": "memoryHash",
          "type": "bytes32"
        },
        {
          "internalType": "uint256",
          "name": "timestamp",
          "type": "uint256"
        }
      ],
      "stateMutability": "view",
      "type": "function",
      "constant": true
    },
    {
      "inputs": [
        {
          "internalType": "string",
          "name": "npcId",
          "type": "string"
        },
        {
          "internalType": "bytes32",
          "name": "memoryHash",
          "type": "bytes32"
        }
      ],
      "name": "storeMemory",
      "outputs": [],
      "stateMutability": "nonpayable",
      "type": "function"
    },
    {
      "inputs": [
        {
          "internalType": "uint256",
          "name": "index",
          "type": "uint256"
        }
      ],
      "name": "getRecord",
      "outputs": [
        {
          "internalType": "address",
          "name": "",
          "type": "address"
        },
        {
          "internalType": "string",
          "name": "",
          "type": "string"
        },
        {
          "internalType": "bytes32",
          "name": "",
          "type": "bytes32"
        },
        {
          "internalType": "uint256",
          "name": "",
          "type": "uint256"
        }
      ],
      "stateMutability": "view",
      "type": "function",
      "constant": true
    }
  ],
  "bytecode": "0x608060405234801561000f575f80fd5b506109e88061001d5f395ff3fe608060405234801561000f575f80fd5b506004361061003f575f3560e01c806303e9e60914610043578063344610671461007657806396aa87d8146100a9575b5f80fd5b61005d60048036038101906100589190610442565b6100c5565b60405161006d949392919061055d565b60405180910390f35b610090600480360381019061008b9190610442565b610212565b6040516100a0949392919061055d565b60405180910390f35b6100c360048036038101906100be9190610632565b6102f1565b005b5f60605f805f8086815481106100de576100dd61068f565b5b905f5260205f2090600402016040518060800160405290815f82015f9054906101000a900473ffffffffffffffffffffffffffffffffffffffff1673ffffffffffffffffffffffffffffffffffffffff1673ffffffffffffffffffffffffffffffffffffffff168152602001600182018054610159906106e9565b80601f0160208091040260200160405190810160405280929190818152602001828054610185906106e9565b80156101d05780601f106101a7576101008083540402835291602001916101d0565b820191905f5260205f20905b8154815290600101906020018083116101b357829003601f168201915b50505050508152602001600282015481526020016003820154815250509050805f01518160200151826040015183606001519450945094509450509193509193565b5f8181548110610220575f80fd5b905f5260205f2090600402015f91509050805f015f9054906101000a900473ffffffffffffffffffffffffffffffffffffffff1690806001018054610264906106e9565b80601f0160208091040260200160405190810160405280929190818152602001828054610290906106e9565b80156102db5780601f106102b2576101008083540402835291602001916102db565b820191905f5260205f20905b8154815290600101906020018083116102be57829003601f168201915b5050505050908060020154908060030154905084565b5f60405180608001604052803373ffffffffffffffffffffffffffffffffffffffff16815260200185858080601f0160208091040260200160405190810160405280939291908181526020018383808284375f81840152601f19601f82011690508083019250505050505050815260200183815260200142815250908060018154018082558091505060019003905f5260205f2090600402015f909190919091505f820151815f015f6101000a81548173ffffffffffffffffffffffffffffffffffffffff021916908373ffffffffffffffffffffffffffffffffffffffff16021790555060208201518160010190816103eb91906108e3565b5060408201518160020155606082015181600301555050505050565b5f80fd5b5f80fd5b5f819050919050565b6104218161040f565b811461042b575f80fd5b50565b5f8135905061043c81610418565b92915050565b5f6020828403121561045757610456610407565b5b5f6104648482850161042e565b91505092915050565b5f73ffffffffffffffffffffffffffffffffffffffff82169050919050565b5f6104968261046d565b9050919050565b6104a68161048c565b82525050565b5f81519050919050565b5f82825260208201905092915050565b5f5b838110156104e35780820151818401526020810190506104c8565b5f8484015250505050565b5f601f19601f8301169050919050565b5f610508826104ac565b61051281856104b6565b93506105228185602086016104c6565b61052b816104ee565b840191505092915050565b5f819050919050565b61054881610536565b82525050565b6105578161040f565b82525050565b5f6080820190506105705f83018761049d565b818103602083015261058281866104fe565b9050610591604083018561053f565b61059e606083018461054e565b95945050505050565b5f80fd5b5f80fd5b5f80fd5b5f8083601f8401126105c8576105c76105a7565b5b8235905067ffffffffffffffff8111156105e5576105e46105ab565b5b602083019150836001820283011115610601576106006105af565b5b9250929050565b61061181610536565b811461061b575f80fd5b50565b5f8135905061062c81610608565b92915050565b5f805f6040848603121561064957610648610407565b5b5f84013567ffffffffffffffff8111156106665761066561040b565b5b610672868287016105b3565b935093505060206106858682870161061e565b9150509250925092565b7f4e487b71000000000000000000000000000000000000000000000000000000005f52603260045260245ffd5b7f4e487b71000000000000000000000000000000000000000000000000000000005f52602260045260245ffd5b5f600282049050600182168061070057607f821691505b602082108103610713576107126106bc565b5b50919050565b7f4e487b71000000000000000000000000000000000000000000000000000000005f52604160045260245ffd5b5f819050815f5260205f209050919050565b5f6020601f8301049050919050565b5f82821b905092915050565b5f600883026107a27fffffffffffffffffffffffffffffffffffffffffffffffffffffffffffffffff82610767565b6107ac8683610767565b95508019841693508086168417925050509392505050565b5f819050919050565b5f6107e76107e26107dd8461040f565b6107c4565b61040f565b9050919050565b5f819050919050565b610800836107cd565b61081461080c826107ee565b848454610773565b825550505050565b5f90565b61082861081c565b6108338184846107f7565b505050565b5b818110156108565761084b5f82610820565b600181019050610839565b5050565b601f82111561089b5761086c81610746565b61087584610758565b81016020851015610884578190505b61089861089085610758565b830182610838565b50505b505050565b5f82821c905092915050565b5f6108bb5f19846008026108a0565b1980831691505092915050565b5f6108d383836108ac565b9150826002028217905092915050565b6108ec826104ac565b67ffffffffffffffff81111561090557610904610719565b5b61090f82546106e9565b61091a82828561085a565b5f60209050601f83116001811461094b575f8415610939578287015190505b61094385826108c8565b8655506109aa565b601f19841661095986610746565b5f5b828110156109805784890151825560018201915060208501945060208101905061095b565b8683101561099d5784890151610999601f8916826108ac565b8355505b6001600288020188555050505b50505050505056fea264697066735822122023ec810caa0f52665edb898904a4128fb291f137794966b22ba86cb16db93cc364736f6c63430008150033",
  "immutableReferences": {},
  "source": "// SPDX-License-Identifier: MIT\r\npragma solidity ^0.8.0;\r\n\r\ncontract MemoryProof {\r\n    struct MemoryRecord {\r\n        address user;\r\n        string npcId;\r\n        bytes32 memoryHash;\r\n        uint256 timestamp;\r\n    }\r\n\r\n    MemoryRecord[] public records;\r\n\r\n    function storeMemory(string calldata npcId, bytes32 memoryHash) external {\r\n        records.push(MemoryRecord(msg.sender, npcId, memoryHash, block.timestamp));\r\n    }\r\n\r\n    function getRecord(uint index) external view returns (address, string memory, bytes32, uint256) {\r\n        MemoryRecord memory rec = records[index];\r\n        return (rec.user, rec.npcId, rec.memoryHash, rec.timestamp);\r\n    }\r\n}\r\n",
  "sourcePath": "C:\\Users\\pokem\\Downloads\\bnbhack\\BNB-AI-Hack\\contracts\\MemoryProof.sol",
  "compiler": {
    "name": "solc",
    "version": "0.8.21+commit.d9974bed.Emscripten.clang"
  },
  "schemaVersion": "3.4.16",
  "updatedAt": "2025-05-24T12:09:56.163Z",
  "networkType": "ethereum",
  "devdoc": {
    "kind": "dev",
    "methods": {},
    "version": 1
  },
  "userdoc": {
    "kind": "user",
    "methods": {},
    "version": 1
  }
}